:101C000012C02BC02AC029C028C027C026C025C0AA
:101C100024C023C022C021C020C01FC01EC01DC0C0
:101C20001CC01BC01AC011241FBECFE5D4E0DEBF0C
:101C3000CDBF10E0A0E6B0E0ECEDFFE102C0059002
:101C40000D92A236B107D9F711E0A2E6B0E001C0CB
:101C50001D92AA36B107E1F74BC0D2CFEF92FF92A7
:101C60000F931F93EE24FF2487015F9915C00894FA
:101C7000E11CF11C011D111D81E2E81681EAF80644
:101C800087E0080780E0180728F0E0916200F091F3
:101C9000630009955F9BEBCF8CB1992787FD9095E9
:101CA0001F910F91FF90EF9008955D9BFECF8CB92F
:101CB0000895D4DF803221F484E1F7DF80E1F5DF9D
:101CC00008950895CF93C82FC9DF803231F484E19D
:101CD000ECDF8C2FEADF80E1E8DFCF910895CF932E
:101CE000882321F0C82FBADFC150E9F7CF910895BA
:101CF000CFE5D4E0DEBFCDBF000010BC89E189B9DB
:101D000088E18AB986E880BDA9DF803309F444C040
:101D10008133A1F4A3DFC82F8032B1F784E1C5DF9E
:101D200081E4C3DF86E5C1DF82E5BFDF8C2FBDDF45
:101D300089E4BBDF83E5B9DF80E52EC1803429F477
:101D40008DDF863848F18ADF27C0813471F486DF61
:101D5000803811F482E027C1813811F481E023C179
:101D6000823809F01FC182E11EC1823411F484E17E
:101D700003C0853419F485E0B2DF0EC0803561F010
:101D8000813551F0823541F0853541F467DF80932C
:101D9000640064DF809365008CDFB6CF863519F46C
:101DA00084E09DDFFFC0843609F09DC057DF80933B
:101DB000670154DF80936601809169018E7F809373
:101DC00069014CDF853429F4809169018160809339
:101DD0006901C0E0D0E08091660190916701C81769
:101DE000D90770F406E610E039DFF80181938F011E
:101DF00021968091660190916701C817D907A0F3D9
:101E00002DDF803209F080CF8091690180FF26C0EC
:101E1000C0E0D0E08091660190916701C817D907B2
:101E200008F05FC006E610E0F80161918F01809133
:101E3000640090916500C7D0809164009091650026
:101E400001969093650080936400219680916601CD
:101E500090916701C817D90738F343C0F894E19906
:101E6000FECF1127E0916400F0916500EE0FFF1F97
:101E7000C6E6D0E0809166019091670180FF01C0C5
:101E80000196103051F422D003E000935700E895FA
:101E90001DD001E100935700E8950990199016D0E4
:101EA00001E000935700E8951395103258F0112780
:101EB0000DD005E000935700E89508D001E10093AC
:101EC0005700E8953296029739F0DBCF0091570022
:101ED00001700130D9F30895103011F00296E7CF68
:101EE000112484E159C0843709F049C0B7DE8093DA
:101EF0006701B4DE80936601B1DE9091690185349B
:101F000021F49160909369010DC09E7F90936901C7
:101F10008091640090916500880F991F90936500EF
:101F2000809364009BDE803209F0EECE84E1BDDE5A
:101F3000C0E0D0E08091660190916701C817D90791
:101F400060F58091690180FF06C0809164009091E6
:101F5000650031D008C0869580FD06C0E091640020
:101F6000F09165008491A1DE8091640090916500FC
:101F7000019690936500809364002196DBCF8537AE
:101F800079F46CDE803209F0BFCE84E18EDE8EE122
:101F90008CDE83E98ADE87E088DE80E186DEB4CEEF
:101FA000863719F480E08EDEAFCEE0916200F091CA
:101FB00063000995A9CEE199FECF9FBB8EBBE09A45
:101FC00099278DB30895E199FECF9FBB8EBB6DBB62
:0C1FD0000FB6F894E29AE19A0FBE089553
:021FDC00800083
:0400000300001C00DD
:00000001FF
