:103800000C94721C0C94AA1C0C948F1C0C948F1C8E
:103810000C948F1C0C948F1C0C948F1C0C948F1C7C
:103820000C948F1C0C948F1C0C948F1C0C948F1C6C
:103830000C948F1C0C948F1C0C948F1C0C948F1C5C
:103840000C948F1C0C948F1C0C948F1C0C948F1C4C
:103850000C948F1C0C948F1C0C948F1C0C948F1C3C
:103860000C948F1C0C948F1C0403090412036F002A
:1038700062006400650076002E0061007400100391
:1038800048004900440042006F006F0074001201BC
:10389000100100000008C016DF0500010102000150
:1038A0000902220001010080320904000001030026
:1038B0000000092101010001222100070581030800
:1038C00000C80600FF0901A101150026FF007508C8
:1038D000850195060900B20201850295830900B2AF
:1038E0000201C00011241FBECFEFD4E0DEBFCDBF68
:1038F00011E0A0E0B1E0EEE8FFE302C005900D9218
:10390000AA30B107D9F711E0AAE0B1E001C01D92D9
:10391000AA33B107E1F70E94DB1D0C94C51F0C947C
:10392000001CA82FB92F80E090E041E050EA60959C
:103930006F5F58F42D9138EF82279795879510F097
:10394000842795273F5FC8F3F3CF0895EADF8D936F
:103950009D930895CF93CFB7CF93C395189BE9F765
:10396000189B09C0189B07C0189B05C0189B03C073
:10397000189B01C0A3C0DF93C0911D01DD27CC5D62
:10398000DE4F189B02C0DF91EBCF2F930F931F9355
:1039900003B12FEF00FB20F94F933F9313B14FEF8B
:1039A000012700FB21F93BE031C04E7F012F13B10D
:1039B000216028C0102F4D7F2260000003B129C074
:1039C0004B7F2460012F000013B12BC013B1477F40
:1039D00028602AC04F7E03B120612CC04F7D13B1F7
:1039E00020622FC04F7B03B1206432C0422703B155
:1039F00049934FEF0000102710FB20F913B113700B
:103A0000C9F1297F91F2012700FB21F903B1237F3E
:103A100089F2315058F1102710FB22F913B1277E9B
:103A200079F2012700FB23F92F7C81F203B11027E3
:103A300010FB24F92F7971F200C013B1012700FBAC
:103A400025F92F7359F200C003B1102710FB26F996
:103A5000223040F200C013B1012700FB27F92430C7
:103A600028F64F77206813B10000F9CF11E01CBB96
:103A7000002719C03B503195C31BD04011E01CBB3F
:103A80000881033CF9F00B34E9F020911B01198106
:103A9000110F1213EDCF4A81441F093641F10D3247
:103AA00011F0013E29F7009322013F914F911F91A0
:103AB0000F912F91DF91CCB3C0FD4FCFCF91CFBFEE
:103AC000CF91189520912201222379F310912001A2
:103AD000112321F5343022F13093200120931C0171
:103AE00010911D013BE0311B30931D0119C0009165
:103AF000200101309CF40AE54F7081F430910001FF
:103B000034FD10C000930001C0E1D1E00FC0279543
:103B1000A8F45150A9F4220F0000F9CF4AE503C0E0
:103B200042ED01C0432FC4E1D0E032E014B1136094
:103B3000289A14B905B120E413E05F93012756E0F9
:103B400005B9279520F4515021F4220FF9CF012710
:103B500056E000003B5A05B9D0F2279528F45150A1
:103B600029F4220F0000F9CF012756E0279505B967
:103B700020F4515021F4220FF9CF012756E029916A
:103B8000332305B921F60C7F10912101110FC65185
:103B9000D04005B911F010931B0111E01CBB01606E
:103BA00014B11C7F402F4C7F5F9100C000C005B94D
:103BB00014B945B97ACF2F923F924F925F926F928C
:103BC0007F928F929F92AF92BF92CF92DF92EF92AD
:103BD000FF920F931F93DF93CF9300D000D0CDB708
:103BE000DEB788E28A95F1F7319BBFC181E085BFDE
:103BF00082E085BF80916900836080936900E89AC4
:103C0000209A20E048EB5BE0A895CA010197F1F704
:103C10002150D1F72098789403EC62EC262E68E3CB
:103C2000362E5EE7652E58E3752E4CE6442E48E3AB
:103C3000542E38E6C32E38E3D32E2EEEA22E2FEFCD
:103C4000B22E22EB38E3A20EB31E9EE8892E98E333
:103C5000992E82E0E82E81E0F82EA895909120011F
:103C6000292F235027FD27C180911D014CE050E0F2
:103C7000481B51094C5D5E4F5C834B8380911C0156
:103C80008D3209F0B4C0283009F013C1009310013F
:103C90005AE55093000110920A01AB81BC812C912E
:103CA000822F807611969C9111978823B1F09930DC
:103CB00059F412968C91823009F080C010920D0157
:103CC00027FD84C09FEF85C0913009F077C0F09246
:103CD0001F01E0921E0127E072C0EB81FC8122816E
:103CE00010921901992331F410921A0189E191E09F
:103CF00022E05FC0953019F42093210157C096301F
:103D000009F044C0AB81BC8113968C91813029F4B9
:103D100090921F0180921E0118C0823031F4B0923F
:103D20001F01A0921E0122E22DC08330C1F4222384
:103D300031F4D0921F01C0921E0124E023C0213033
:103D400031F450921F0140921E0122E11BC022302B
:103D5000C1F470921F0160921E0120E113C08132F4
:103D600041F4E2EBF8E3F0931F01E0931E0129E038
:103D700009C0823231F430921F0120921E0121E2EB
:103D800001C020E0F0E4F0930A0119C0983019F462
:103D900083E291E009C0993019F42093230106C011
:103DA0009A3021F489E191E021E003C089E191E0BA
:103DB00020E090931F0180931E0101C020E0AB81A1
:103DC000BC8117968C91882341F00DC0EB81FC815A
:103DD000968180E880930A0107C0AB81BC8116966A
:103DE0009C91921708F0922F9093010162C08091EC
:103DF0000A0187FF5EC0E0910B01F0910C01FA838C
:103E0000E98380910D01882389F4AB81BC811196EF
:103E1000BC91B983EB81FC81F281FA832B813C81D7
:103E20002C5F3F4F3C832B83292F2750322F380F95
:103E300030930D0189818F7759F4F89443E0E9813B
:103E4000FA8140935700E895789407B600FCFDCFBF
:103E5000F89449815A81AB81BC818D919C9161E03C
:103E6000FA010C0160935700E8951124789432967A
:103E7000FA83E98389818F7751F4F89465E0FA0138
:103E800060935700E895789407B600FCFDCF225068
:103E900031F08B819C8102969C838B83CBCFA9814F
:103EA000BA81B0930C01A0930B0137FF02C01092AE
:103EB0000101109220018091000184FF4AC080918D
:103EC00001018F3F09F445C0182F893008F018E030
:103ED000811B809301018091100198E889278093CC
:103EE0001001112341F120911E0130911F01809199
:103EF0000A0186FF0DC0A1E1B1E080E090E0F90188
:103F0000E80FF91FE491ED9301961817C1F708C067
:103F1000D901912FE1E1F1E08D9181939150E1F789
:103F20001150812F90E01F5F0196820F931F909395
:103F30001F0180931E0181E191E0612F0E94A61C68
:103F4000612F6C5F6C3019F08FEF809301016093EB
:103F5000000194E183B1837031F49150D9F710924C
:103F6000210110921B01319978CEF89481E1809360
:103F70005700E8951DBA1092690081E085BF15BE13
:0E3F8000E0910E01F0910F010995F894FFCF2A
:0A3F8E005AFF01800000400000000F
:0400000300003800C1
:00000001FF
