:1018000050C084C069C068C067C066C065C064C09D
:1018100063C062C061C060C05FC05EC05DC05CC0CC
:101820005BC05AC059C00403090412036F00620070
:101830006400650076002E0061007400100348000B
:101840004900440042006F006F0074001201100153
:1018500000000008C016DF050001010200010902B6
:101860002200010100803209040000010300000091
:10187000092101010001222100070581030800C898
:101880000600FF0901A101150026FF00750885016A
:1018900095060900B20201850295830900B2020192
:1018A000C00011241FBECFE5D4E0DEBFCDBF10E0E5
:1018B000A0E6B0E0E2E4FFE102C005900D92AA3696
:1018C000B107D9F710E0AAE6B0E001C01D92AA392D
:1018D000B107E1F74CD133C393CFA82FB92F80E0E4
:1018E00090E041E050EA60956F5F58F42D9138EF39
:1018F00082279795879510F0842795273F5FC8F337
:10190000F3CF0895EADF8D939D930895CF93CFB7DA
:10191000CF93C395B09BE9F7B09B09C0B09B07C0BC
:10192000B09B05C0B09B03C0B09B01C0A3C0DF93B8
:10193000C0917D00DD27CC57DF4FB09B02C0DF9107
:10194000EBCF2F930F931F9306B32FEF00FB20F9DC
:101950004F933F9316B34FEF012700FB21F93BE074
:1019600031C04E7F012F16B3216028C0102F4D7F4C
:101970002260000006B329C04B7F2460012F0000C5
:1019800016B32BC016B3477F28602AC04F7E06B31C
:1019900020612CC04F7D16B320622FC04F7B06B351
:1019A000206432C0422706B349934FEF000010274E
:1019B00010FB20F916B31370C9F1297F91F20127AA
:1019C00000FB21F906B3237F89F2315058F110272B
:1019D00010FB22F916B3277E79F2012700FB23F9C9
:1019E0002F7C81F206B3102710FB24F92F7971F2B6
:1019F00000C016B3012700FB25F92F7359F200C070
:101A000006B3102710FB26F9223040F200C016B3AF
:101A1000012700FB27F9243028F64F77206816B3FA
:101A20000000F9CF10E41ABF002719C03B503195D0
:101A3000C31BD04010E41ABF0881033CF9F00B34FB
:101A4000E9F020917B001981110F1213EDCF4A812B
:101A5000441F093641F10D3211F0013E29F7009380
:101A600082003F914F911F910F912F91DF91CAB743
:101A7000C6FD4FCFCF91CFBFCF9118952091820057
:101A8000222379F310918000112321F5343022F1C3
:101A90003093800020937C0010917D003BE0311B4F
:101AA00030937D0019C00091800001309CF40AE55C
:101AB0004F7081F43091600034FD10C000936000DD
:101AC000C0E7D0E00FC02795A8F45150A9F4220F29
:101AD0000000F9CF4AE503C042ED01C0432FC4E145
:101AE000D0E032E017B31360C09A17BB08B320E40C
:101AF00013E05F93012756E008BB279520F451506F
:101B000021F4220FF9CF012756E000003B5A08BB11
:101B1000D0F2279528F4515029F4220F0000F9CF74
:101B2000012756E0279508BB20F4515021F4220FDD
:101B3000F9CF012756E02991332308BB21F60C7F0A
:101B400010918100110FC651D04008BB11F01093C5
:101B50007B0010E41ABF016017B31C7F402F4C7F3D
:101B60005F9100C000C008BB17BB48BB7ACF2F9263
:101B70003F924F925F926F927F928F929F92AF921D
:101B8000BF92CF92DF92EF92FF920F931F93DF935A
:101B9000CF9300D000D0CDB7DEB788E28A95F1F7B9
:101BA000999BBEC181E08BBF82E08BBF85B783600C
:101BB00085BF8BB780648BBFB89A20E048EB5BE0B1
:101BC000A895CA010197F1F72150D1F7B8987894F8
:101BD00003EC60E8262E68E1362E5CE3652E58E1C2
:101BE000752E4AE2442E48E1542E36E2C32E38E1E7
:101BF000D32E2EEEA22E2FEFB22E20E738E1A20E2A
:101C0000B31E9CE4892E98E1992E82E6E82E80E0AE
:101C1000F82EA89590918000292F235027FD27C1E9
:101C200080917D004CE050E0481B51094C575F4FBC
:101C30005C834B8380917C008D3209F0B4C02830E6
:101C400009F013C1009370005AE5509360001092A0
:101C50006A00AB81BC812C91822F807611969C9179
:101C600011978823B1F0993059F412968C918230F3
:101C700009F080C010926D0027FD84C09FEF85C0E1
:101C8000913009F077C0F0927F00E0927E0027E06B
:101C900072C0EB81FC81228110927900992331F48A
:101CA00010927A0089E790E022E05FC0953019F445
:101CB0002093810057C0963009F044C0AB81BC81AD
:101CC00013968C91813029F490927F0080927E004F
:101CD00018C0823031F4B0927F00A0927E0022E2E0
:101CE0002DC08330C1F4222331F4D0927F00C09202
:101CF0007E0024E023C0213031F450927F004092D6
:101D00007E0022E11BC02230C1F470927F006092FD
:101D10007E0020E113C0813241F4E0E7F8E1F09366
:101D20007F00E0937E0029E009C0823231F43092D6
:101D30007F0020927E0021E201C020E0F0E4F093D9
:101D40006A0019C0983019F483E890E009C099300E
:101D500019F42093830006C09A3021F489E790E0BB
:101D600021E003C089E790E020E090937F0080931A
:101D70007E0001C020E0AB81BC8117968C91882346
:101D800041F00DC0EB81FC81968180E880936A0070
:101D900007C0AB81BC8116969C91921708F0922FD8
:101DA0009093610062C080916A0087FF5EC0E091FD
:101DB0006B00F0916C00FA83E98380916D008823B9
:101DC00089F4AB81BC811196BC91B983EB81FC8114
:101DD000F281FA832B813C812C5F3F4F3C832B8324
:101DE000292F2750322F380F30936D0089818F7340
:101DF00059F4F89443E0E981FA8140935700E8955B
:101E0000789407B600FCFDCFF89449815A81AB81E4
:101E1000BC818D919C9161E0FA010C0160935700A7
:101E2000E895112478943296FA83E98389818F7337
:101E300051F4F89465E0FA0160935700E8957894BE
:101E400007B600FCFDCF225031F08B819C810296B9
:101E50009C838B83CBCFA981BA81B0936C00A09374
:101E60006B0037FF02C010926100109280008091D9
:101E7000600084FF49C0809161008F3F09F444C035
:101E8000182F893008F018E0811B80936100809141
:101E9000700098E8892780937000112341F1209108
:101EA0007E0030917F0080916A0086FF0DC0A1E71F
:101EB000B0E080E090E0F901E80FF91FE491ED93C4
:101EC00001961817C1F708C0D901912FE1E7F0E09A
:101ED0008D9181939150E1F71150812F90E01F5F18
:101EE0000196820F931F90937F0080937E0081E77D
:101EF00090E0612F07DD612F6C5F6C3019F08FEF80
:101F0000809361006093600094E186B3837031F444
:101F10009150D9F71092810010927B00999979CE57
:101F2000F89481E180935700E8951BBE15BE81E0CF
:101F30008BBF1BBEE0916E00F0916F000995F89485
:021F4000FFCFD1
:0A1F42005AFF0140000020000000DB
:0400000300001800E1
:00000001FF
