:1018000019C033C032C031C030C02FC02EC02DC06F
:101810002CC02BC02AC029C028C027C026C025C084
:1018200024C023C022C021C020C01FC01EC01DC0B4
:101830001CC01BC011241FBECFEFD4E0DEBFCDBF44
:1018400011E0A0E0B1E0ECE2FEE102C005900D92F3
:10185000A230B107D9F712E0A2E0B1E001C01D92B9
:10186000AD30B107E1F7B5D0DFC2CACF982F95955B
:10187000959595959595905D8F708A301CF0282FE1
:10188000295A02C0282F205D8091C00085FFFCCF1F
:101890009093C6008091C00085FFFCCF2093C600C6
:1018A0000895982F8091C00085FFFCCF9093C600CB
:1018B0000895EF92FF920F931F93EE24FF24870168
:1018C00013C00894E11CF11C011D111D81EBE816E9
:1018D00081E7F8068BE0080780E0180728F0E09120
:1018E0000401F091050109958091C00087FFE9CFBF
:1018F0008091C6001F910F91FF90EF900895D9DF5E
:10190000982F8091C00085FFFCCF9093C600913640
:1019100014F0975503C090330CF09053892F08951D
:101920001F93EDDF182FEBDF1295107F810F1F91B2
:1019300008951F93182F02C0BCDF11501123E1F747
:101940001F9108951F93182FB4DF8032A9F480915E
:10195000C00085FFFCCF84E18093C6008091C00069
:1019600085FFFCCF1093C6008091C00085FFFCCF9F
:1019700080E18093C6000CC0809103018F5F80934B
:101980000301853029F4E0910401F09105010995E6
:101990001F9108958EDF803279F48091C00085FF19
:1019A000FCCF84E18093C6008091C00085FFFCCF0E
:1019B00080E18093C6000895809103018F5F80933A
:1019C0000301853029F4E0910401F09105010995A6
:1019D00008953F924F925F926F927F928F929F9263
:1019E000AF92BF92CF92DF92EF92FF920F931F932D
:1019F000CF93DF93000086E28093C4001092C5006D
:101A000088E18093C10086E08093C2005098589A84
:101A1000259A24E1E22E9EE1C92E83E9B82E0AE040
:101A2000A02E10E1F12E99249394B1E48B2EA6E51B
:101A30007A2EF2E56F2EE0E25E2E79E4472E63E522
:101A4000362E50E5D52E35DF803309F45AC0813368
:101A5000C9F52FDF803209F0D9C18091C00085FF20
:101A6000FCCFE092C6008091C00085FFFCCF809241
:101A7000C6008091C00085FFFCCF7092C6008091A7
:101A8000C00085FFFCCF6092C6008091C00085FF3A
:101A9000FCCF5092C6008091C00085FFFCCF4092E1
:101AA000C6008091C00085FFFCCF3092C6008091B7
:101AB000C00085FFFCCFD092C6008091C00085FF9A
:101AC000FCCF9CC1803429F4F4DE8638D0F0F1DEFE
:101AD00018C0813491F4EDDE803811F482E094C1B5
:101AE000813811F481E090C1823811F480E18CC119
:101AF000883909F088C183E087C1823421F484E108
:101B000018DF48DFA0CF853411F485E0F9CF8035A8
:101B1000C1F38235B1F38135A1F3853539F4C9DEDE
:101B200080930601C6DE80930701EBCF8635A1F4D2
:101B3000C0DE803371F4BDDEBCDE182FBADE1123A7
:101B400011F48EE161C1113011F483E95DC18AE0C5
:101B50005BC183E0EEDE57C1843609F0CDC0A9DE5B
:101B600080930902A6DE8093080280910C028E7F8A
:101B700080930C029EDE853429F480910C028160F2
:101B800080930C0200E010E007C093DEF801E85FEC
:101B9000FE4F80830F5F1F4F8091080290910902D2
:101BA0000817190790F385DE803209F02FC1809164
:101BB0000C0280FF2BC02091060130910701220FFB
:101BC000331F309307012093060160910802709142
:101BD000090240E050E010C0F999FECFCA01820F1F
:101BE000931F92BD81BDFA01E85FFE4F808180BDE9
:101BF000FA9AF99A4F5F5F4F4617570768F3260F17
:101C0000371F30930701209306016BC080910701B5
:101C10008823880F880B892180930B02809106010D
:101C200090910701880F991F9093070180930601F7
:101C30008091080280FF09C08091080290910902FA
:101C400001969093090280930802F894F999FECFC7
:101C50001127E0910601F0910701C8E0D1E08091E1
:101C6000080290910902103091F400915700017020
:101C70000130D9F303E000935700E8950091570035
:101C800001700130D9F301E100935700E895099004
:101C900019900091570001700130D9F301E00093D1
:101CA0005700E8951395103298F0112700915700CE
:101CB00001700130D9F305E000935700E8950091D9
:101CC000570001700130D9F301E100935700E89506
:101CD0003296029709F0C7CF103011F00296E5CF87
:101CE00011248091C00085FFFCCFE092C600809156
:101CF000C00085FFFCCF82C0843709F05EC0D9DD0B
:101D000080930902D6DD80930802809106019091AC
:101D10000701880F991F9093070180930601C9DD81
:101D200090910C02853411F4916001C09E7F9093D4
:101D30000C02BFDD803209F086CE8091C00085FFA5
:101D4000FCCFE092C600A0910802B09109028091F8
:101D50000C02782F7170682F6695617020910601D2
:101D600030910701F90140E050E019C0772359F0A4
:101D7000F999FECFF2BDE1BDF89A90B58091C0000F
:101D800085FFFCCF07C0662339F494918091C00091
:101D900085FFFCCF9093C6004F5F5F4F31964A1787
:101DA0005B0720F32A0F3B1F3093070120930601A6
:101DB0008091C00085FFFCCF21C0853711F579DD0A
:101DC000803221F58091C00085FFFCCFE092C600F3
:101DD0008091C00085FFFCCFC092C6008091C000FA
:101DE00085FFFCCFB092C6008091C00085FFFCCF7C
:101DF000A092C6008091C00085FFFCCFF092C60083
:101E000022CE863719F480E09DDD1DCE809103013E
:101E10008F5F80930301853009F015CEE0910401B6
:0C1E2000F091050109950FCEF894FFCF5A
:021E2C00800034
:0400000300001800E1
:00000001FF
